S00F00004475616C57424F2E73726563A7
S113000049C0000064C0000062C0000060C000007D
S11300105EC000005CC000005AC0000058C0000070
S113002056C0000054C0000052C0000050C0000080
S11300304EC000004CC000004AC0000048C0000090
S113004046C0000044C0000042C0000040C00000A0
S11300503EC000003CC000003AC0000038C00000B0
S113006036C0000034C0000032C0000030C00000C0
S11300702EC000002CC000002AC0000028C00000D0
S113008026C0000024C0000022C0000020C00000E0
S11300901EC0000011241FBECFEFD0E1DEBFCDBFD4
S11300A021E0A6E0B1E001C01D92AE30B207E1F755
S11300B011E0A0E0B1E0E8E8F5E000E00BBF02C029
S11300C007900D92A630B107D9F771D05BC298CFD3
S11300D08091060190910701892B39F481E090E029
S11300E07DD0909307018093060180910601909141
S11300F00701089580E090E008956F927F928F92B7
S11301009F92AF92BF92CF92DF92EF92FF920F93A2
S11301101F93CF93DF93CDB7DEB768970FB6F894EC
S1130120DEBF0FBECDBF02963C010F2EF0EF8F2E27
S1130130912CF02DA12CB12C0F2EFDECCF2EFCEC2C
S1130140DF2EFCE4EF2EF0E4FF2EF02D0DEC1CEC82
S11301502CE43FE340E050E060EA70E441D00DEC71
S11301601CEC2CE43FE340E050E060EA70E4CE0194
S1130170019636D088E1FE013196D30101900D92AB
S11301808A95E1F768960FB6F894DEBF0FBECDBF2F
S1130190DF91CF911F910F91FF90EF90DF90CF905F
S11301A0BF90AF909F908F907F906F900895CF9362
S11301B0DF93CDB7DEB7E8970FB6F894DEBF0FBE76
S11301C0CDBF68E0CE01019637D093D06FEF7FEFBB
S11301D0A8D07EDF45E060E08DDFFFCFB2C0089598
S11301E08F929F92AF92BF92CF92DF92EF92FF9243
S11301F00F931F93CF93DF93CDB7DEB7FC014083FA
S11302005183628373830483158326833783C08673
S1130210D186E286F386B58AA48A978A868ADF9194
S1130220CF911F910F91FF90EF90DF90CF90BF90EF
S1130230AF909F908F900895DF92EF92FF920F936B
S11302401F93CF93DF93CDB7DEB76A970FB6F894B9
S1130250DEBF0FBECDBF8C01D62EFC0110828CEC0C
S113026091EF9283818388E08383158214821782BD
S113027016821186108613861286158614861786B2
S11302801686118A108A138A128A158A148A81E0C2
S1130290868B178A7801FEE1EF0EF11CC7012DDF72
S11302A0F801D38284E190E0918F808F158E148EB3
S11302B082E090E0938F828FCE0101961EDF8AE167
S11302C0FE013196D70101900D928A95E1F76A9665
S11302D00FB6F894DEBF0FBECDBFDF91CF911F9153
S11302E00F91FF90EF90DF9008958CB587658CBDDA
S11302F00895CF93DF938091080190910901892B90
S113030049F481E090E06ADFEC01EFDFD09309016A
S1130310C09308018091080190910901DF91CF9168
S113032008957EBD0DB407FEFDCF8EB58F736EBDEF
S11303300DB407FEFDCF2EB590E0982F8827822BB1
S113034008950F931F93CF93DF938230910510F498
S113035082E090E0E0910C01F0910D0120E030E0AA
S1130360A0E0B0E0309719F14081518102811381FE
S113037048175907C8F08417950769F4109731F0A6
S113038012960C93129713961C9327C000930C019A
S113039010930D0122C02115310519F0421753079E
S11303A018F49A01BD01EF01DF01F801DBCF21153B
S11303B03105F9F0281B390B2430310580F48A818A
S11303C09B816115710521F0FB019383828304C035
S11303D090930D0180930C01FE01329644C0FE01FE
S11303E0E20FF31F819391932250310939832883BB
S11303F03AC020910A0130910B01232B41F4209142
S113040002013091030130930B0120930A012091E2
S11304100001309101012115310541F42DB73EB79A
S11304204091040150910501241B350BE0910A0110
S1130430F0910B01E217F307A0F42E1B3F0B2817D2
S1130440390778F0AC014E5F5F4F2417350748F049
S11304504E0F5F1F50930B0140930A0181939193B8
S113046002C0E0E0F0E0CF01DF91CF911F910F9146
S11304700895CF93DF93009709F481C0FC0132976C
S113048013821282A0910C01B0910D01109781F496
S113049020813181820F931F20910A0130910B0139
S11304A02817390751F5F0930B01E0930A0167C04F
S11304B0ED0120E030E0CE17DF0740F44A815B8194
S11304C09E0141155105F1F0EA01F5CFD383C283B2
S11304D040815181840F951FC817D90759F4888129
S11304E09981840F951F0296918380838A819B81D1
S11304F0938382832115310529F4F0930D01E09350
S11305000C013DC0E901FB83EA8349915991C40F71
S1130510D51FEC17FD0761F480819181840F951F2D
S11305200296E90199838883828193819B838A83DC
S1130530E0E0F0E012968D919C911397009719F0EA
S1130540FD01DC01F7CF8D919C9111979D012E5FE8
S11305503F4F820F931F20910A0130910B012817FE
S1130560390769F4309729F410920D0110920C01A7
S113057002C013821282B0930B01A0930A01DF918F
S10B0580CF910895F894FFCF18
S109058800000E0120003A
S9030000FC
