S00F00004475616C57424F2E73726563A7
S113000049C000004FC000004DC000004BC00000BC
S113001049C0000047C0000045C0000043C00000C4
S113002041C000003FC000003DC000003BC00000D4
S113003039C0000037C0000035C0000033C00000E4
S113004031C000002FC000002DC000002BC00000F4
S113005029C0000027C0000025C0000023C0000004
S113006021C000001FC000001DC000001BC0000014
S113007019C0000017C0000015C0000013C0000024
S113008011C000000FC000000DC000000BC0000034
S113009009C0000011241FBECFEFD0E1DEBFCDBFE9
S11300A05CD0EFC0ADCF6F927F928F929F92AF9250
S11300B0BF92CF92DF92EF92FF920F931F93CF9351
S11300C0DF93CDB7DEB768970FB6F894DEBF0FBEE7
S11300D0CDBF02963C010F2EF0EF8F2E912CF02D08
S11300E0A12CB12C0F2EFDECCF2EFCECDF2EFCE46A
S11300F0EF2EF0E4FF2EF02D0DEC1CEC2CE43FE38E
S113010040E050E060EA70E437D00DEC1CEC2CE4E5
S11301103FE340E050E060EA70E4CE0101962CD069
S113012088E1FE013196D30101900D928A95E1F7A1
S113013068960FB6F894DEBF0FBECDBFDF91CF91A6
S11301401F910F91FF90EF90DF90CF90BF90AF90F1
S11301509F908F907F906F900895CF93DF93CDB74A
S1130160DEB7E8970FB6F894DEBF0FBECDBF68E0E8
S1130170CE0101962DD0FFCF8F929F92AF92BF9266
S1130180CF92DF92EF92FF920F931F93CF93DF935F
S1130190CDB7DEB7FC01408351836283738304834C
S11301A0158326833783C086D186E286F386B58A93
S11301B0A48A978A868ADF91CF911F910F91FF902D
S11301C0EF90DF90CF90BF90AF909F908F90089565
S11301D0DF92EF92FF920F931F93CF93DF93CDB7EC
S11301E0DEB76A970FB6F894DEBF0FBECDBF8C01A1
S11301F0D62EFC0110828CEC91EF9283818388E0EF
S113020083831582148217821682118610861386C0
S113021012861586148617861686118A108A138A02
S1130220128A158A148A81E0868B178A7801FEE186
S1130230EF0EF11CC70137DFF801D38284E190E0AF
S1130240918F808F158E148E82E090E0938F828F31
S1130250CE01019628DF8AE1FE013196D701019093
S11302600D928A95E1F76A960FB6F894DEBF0FBE39
S1130270CDBFDF91CF911F910F91FF90EF90DF9051
S10902800895F894FFCF7D
S9030000FC
