S00F000054535F546573742E737265636F
S113000088C00000A5C00000A3C00000A1C000007B
S11300109FC000009DC000009BC0000099C000006C
S113002097C0000095C0000093C0000091C000007C
S11300308FC000008DC000008BC0000089C000008C
S113004087C0000085C0000083C0000081C000009C
S1130050C6C000007DC000007BC0000079C0000065
S113006077C0000075C0000073C0000071C00000BC
S11300706FC000006DC000006BC0000069C00000CC
S113008067C0000065C0000063C0000061C00000DC
S11300905FC000005DC000005BC0000059C00000EC
S11300A057C0000055C0000053C0000051C00000FC
S11300B04FC000004DC000004BC0000049C000000C
S11300C047C0000045C0000043C00000BCC00000A1
S11300D03FC000003DC000003BC0000039C000002C
S11300E037C00000D50231033E033E031C03AD02BA
S11300F03E033E033E033E033E033E033E033E03F4
S11301003E033903B3023E03B9023E033E03BF027A
S11301100D0311241FBECFEFD1E2DEBFCDBF00E03F
S11301200CBF12E0A0E0B2E0E4E6FCE000E00BBFAC
S113013002C007900D92AC33B107D9F723E0ACE3CA
S1130140B2E001C01D92AB3BB207E1F7A2D188C572
S113015057CF80E480937C0087E880937A000895E9
S1130160ECE7F0E0208130E0207E8F71282B808145
S1130170282B2083EAE7F0E08081806480838091EB
S11301807A0086FDFCCF80917800909179000895E3
S1130190CF92DF92EF92FF921F93CF93DF93182FAA
S11301A0D62FC0E0C12CD12C760107C0812FD8DF17
S11301B0C80ED91EE11CF11CCF5FCD17B8F32D2F4B
S11301C030E040E050E0C701B601E0D4C901DF915E
S11301D0CF911F91FF90EF90DF90CF9008951F92E1
S11301E00F920FB60F9211240BB60F928F939F9319
S11301F0EF93FF93E4EAF2E080818F5F808385B11F
S1130200805885B980913E0290913F02868F8091FB
S11302103E0290913F02978F10923F0210923E024D
S113022080912D0290912E029093850080938400FA
S1130230FF91EF919F918F910F900BBE0F900FBE86
S11302400F901F9018951F920F920FB60F921124C2
S11302500BB60F922F933F934F935F936F937F93BC
S11302608F939F93AF93BF93EF93FF938091D600A7
S1130270863469F018F4813431F024C08C3499F058
S1130280863559F01FC085B1805885B91BC068E216
S113029070E080E092E070D215C069E070E082E620
S11302A093E06AD20FC080913C0290913D029093FA
S11302B041028093400280913C0290913D0262E0B1
S11302C070E05AD2FF91EF91BF91AF919F918F91BE
S11302D07F916F915F914F913F912F910F900BBE42
S11302E00F900FBE0F901F901895861B970BBC01A3
S11302F0990F880B990B5BD32AE939E947EF53E44B
S1130300BBD220E030E04AE754E4DDD31DD3CB0177
S113031008954F925F926F927F92BF92CF92DF9235
S1130320EF92FF920F931F93CF93DF9300D01F920E
S1130330CDB7DEB78C0180914202909143028017C1
S113034091072CF06091E4027091E50202C060E034
S113035070E080917002909171020817190724F0DF
S11303606091120370911303B12C79C02B2D30E0EE
S1130370F901EE0FFF1FEE5BFD4F808191819A839F
S113038089830817190741F4220F331FF901EC512F
S1130390FD4F6081718162C089819A8108171907B4
S11303A00CF45CC0C9010196FC01EE0FFF1FEE5B6B
S11303B0FD4FE080F180E016F1060CF44FC0880F89
S11303C0991FFC01EC51FD4FC080D180220F331FD7
S11303D0F901EC51FD4F80819181B601681B790BC5
S11303E080E090E0E2D22B013C01B70189819A813F
S11303F0681B790B072E000C880B990BD8D29B0134
S1130400AC01C301B20138D22B013C01B60180E03A
S113041090E0CBD269837A838B839C83B701FF0CF2
S1130420880B990BC4D2A30192014DD39B01AC015B
S113043069817A818B819C81BAD16B017C01B8017D
S1130440012E000C880B990BB2D2A30192013BD36D
S11304509B01AC01C701B601ABD17BD2B39461154A
S1130460710521F496E19B1508F080CFCB010F9024
S11304700F900F900F90DF91CF911F910F91FF90EC
S1130480EF90DF90CF90BF907F906F905F904F90F0
S1130490089511D167E070E08FE292E06DD159DEEA
S11304A084B1806884B94EE150E06EE870E084E481
S11304B093E0A5D345E250E069E670E086E993E075
S11304C09ED349E050E060E670E082E693E097D383
S11304D040E350E060E370E082E492E090D340E3D4
S11304E050E060E070E084EE92E089D382E693E02D
S11304F09093A3028093A202CBD07894EBE8F3E02C
S113050083E080838CED95E092838183E4EAF2E0DA
S11305108AE8818380912B0290912C0286838091BA
S11305202B0290912C0297838091290290912A02A8
S113053080878091290290912A029187F12CE9D039
S113054090E0FC01E154F109E731F10508F096C0AF
S11305508827EE58FF4F8F4F3BC363E070E087E37B
S113056092E0EFD08BC06EE170E084E493E0E9D0D8
S113057085C064E270E086E993E0E3D07FC081E067
S1130580F81205C069E070E082E693E0DAD0E2E0B8
S1130590FE1274C060E370E082E492E0D2D060E3C3
S11305A070E084EE92E0CDD069C065E083E0F0DDD8
S11305B090933D0280933C0220913C0230913D0295
S11305C0A8E8B3E10DD38B019C010F2EFAE0369518
S11305D0279517950795FA95D1F7F02D0F2EFBE87F
S11305E0CF2EF3E0DF2EF02DF60103831483C4EA4B
S11305F0D2E00C871D8761817281802F912F75DE77
S1130600F601818792878A8B9B8B83DE8A839B8307
S113061060E270E0CE0195D031C084D08823E9F344
S113062078D0182F7FD08823E9F373D0E12FF0E03E
S1130630EE59FC4F808322C085E48093C40272D0BB
S11306408823E9F366D08093C5026CD08823E9F34C
S113065060D08093C60263E070E084EC92E08CD0BA
S11306600DC049E050E060E670E082E693E0D7D246
S113067005C058D08823E9F34CD0F82E80913E026F
S113068090913F02019690933F0280933E0257CF90
S113069080912D0290912E02909385008093840086
S11306A010928000E1E8F0E080818460808381E042
S11306B080936F00089588E090E0909335018093D3
S11306C0340188E18093310186E08093320102C0D5
S11306D080913601809130018823D4F388E090E042
S11306E09093D5008093D40088E98093D10086E06C
S11306F08093D20002C08091D6008091D0008823DC
S1130700D4F308959091300195FFFCCF8093360186
S113071008958091300188231CF480913601089556
S113072080E0089580913001882314F481E00895D5
S113073080E008959091D00095FFFCCF8093D6007F
S11307400895EF92FF920F931F93CF93DF937C0151
S11307508B01C0E0D0E006C0F701EC0FFD1F8081E3
S1130760D1DF2196C017D107B8F3DF91CF911F9144
S11307700F91FF90EF900895EF92FF920F931F93C4
S1130780CF93DF937C018B01C0E0D0E006C0F7017A
S1130790EC0FFD1F8081CEDF2196C017D107B8F37F
S11307A0DF91CF911F910F91FF90EF9008955058D2
S11307B0BB27AA270ED04DC13ED130F043D120F043
S11307C031F49F3F11F41EF433C10EF4E095E7FBBE
S11307D029C1E92F4FD180F3BA1762077307840741
S11307E0950718F071F49EF567C10EF4E0950B2E91
S11307F0BA2FA02D0B01B90190010C01CA01A0016F
S11308001124FF27591B99F0593F50F4503E68F1C9
S11308101A16F040A22F232F342F4427585FF3CF0A
S1130820469537952795A795F0405395C9F77EF4DB
S11308301F16BA0B620B730B840BBAF09150A1F024
S1130840FF0FBB1F661F771F881FC2F70EC0BA0FAA
S1130850621F731F841F48F4879577956795B79532
S1130860F7959E3F08F0B3CF9395880F08F099272A
S1130870EE0F9795879508950CD0EBC0E3D040F028
S1130880DAD030F021F45F3F19F0CCC0511115C11A
S1130890CFC0F0D098F39923C9F35523B1F3951B36
S11308A0550BBB27AA2762177307840738F09F5F8D
S11308B05F4F220F331F441FAA1FA9F333D00E2EFC
S11308C03AF0E0E830D091505040E695001CCAF769
S11308D029D0FE2F27D0660F771F881FBB1F26172E
S11308E037074807AB07B0E809F0BB0B802DBF0101
S11308F0FF2793585F4F2AF09E3F510568F092C03E
S1130900DCC05F3FECF3983EDCF386957795679502
S1130910B795F7959F5FC9F7880F911D96958795B1
S113092097F90895E1E0660F771F881FBB1F6217D0
S113093073078407BA0720F0621B730B840BBA0B8E
S1130940EE1F88F7E095089504D06894B111B5C0FE
S1130950089598D088F09F5790F0B92F9927B751F0
S1130960A0F0D1F0660F771F881F991F1AF0BA956F
S1130970C9F712C0B13081F09FD0B1E008959CC096
S1130980672F782F8827B85F39F0B93FCCF3869565
S113099077956795B395D9F73EF4909580957095C2
S11309A061957F4F8F4F9F4F0895E89409C097FB3F
S11309B03EF490958095709561957F4F8F4F9F4F32
S11309C09923A9F0F92F96E9BB279395F695879576
S11309D077956795B795F111F8CFFAF4BB0F11F439
S11309E060FF1BC06F5F7F4F8F4F9F4F16C08823E0
S11309F011F096E911C0772321F09EE8872F762F16
S1130A0005C0662371F096E8862F70E060E02AF056
S1130A109A95660F771F881FDAF7880F9695879542
S1130A2097F9089597F99F6780E870E060E008956A
S1130A309FEF80EC089500240A94161617061806F2
S1130A400906089500240A941216130614060506CE
S1130A500895092E0394000C11F4882352F0BB0F5F
S1130A6040F4BF2B11F460FF04C06F5F7F4F8F4FC2
S1130A709F4F089557FD9058440F551F59F05F3FFD
S1130A8071F04795880F97FB991F61F09F3F79F0AC
S1130A9087950895121613061406551FF2CF46952E
S1130AA0F1DF08C0161617061806991FF1CF8695B0
S1130AB07105610508940895E894BB276627772794
S1130AC0CB0197F908950BD0C4CFB5DF28F0BADF76
S1130AD018F0952309F0A6CFABCF1124EECFCADFCF
S1130AE0A0F3959FD1F3950F50E0551F629FF0013D
S1130AF0729FBB27F00DB11D639FAA27F00DB11D96
S1130B00AA1F649F6627B00DA11D661F829F22271E
S1130B10B00DA11D621F739FB00DA11D621F839FA5
S1130B20A00D611D221F749F3327A00D611D231F7B
S1130B30849F600D211D822F762F6A2F11249F57C9
S1130B4050408AF0E1F088234AF0EE0FFF1FBB1FEC
S1130B50661F771F881F91505040A9F79E3F51058B
S1130B6070F060CFAACF5F3FECF3983EDCF386953C
S1130B7077956795B795F795E7959F5FC1F7FE2B36
S1130B80880F911D9695879597F90895A1E21A2EDD
S1130B90AA1BBB1BFD010DC0AA1FBB1FEE1FFF1F1D
S1130BA0A217B307E407F50720F0A21BB30BE40B6D
S1130BB0F50B661F771F881F991F1A9469F76095B4
S1130BC07095809590959B01AC01BD01CF0108956E
S1130BD0EE0FFF1F881F8BBF0790F691E02D19942D
S1130BE0A29FB001B39FC001A39F700D811D11246A
S1130BF0911DB29F700D811D1124911D0895DC017A
S1130C00CB01FC01F999FECF06C0F2BDE1BDF89A13
S1130C10319600B40D9241505040B8F70895DC016C
S1130C20A40FB51F4150504040F0CB01840F951FD5
S1130C302E9105D041505040D8F70895262FF999A8
S1130C40FECF92BD81BDF89A019700B4021639F027
S1130C501FBA20BD0FB6F894FA9AF99A0FBE0895F8
S1070C60F894FFCF32
S1130C6448616C6C6F2057656C742C20646173202C
S1130C746973742065696E20496E74657272757047
S1130C847474657374210D0A00BC028000DC0B7259
S10F0C9465626F6F742100303031000085
S9030000FC
