S00F000054535F546573742E737265636F
S113000088C00000A5C00000A3C00000A1C000007B
S11300109FC000009DC000009BC0000099C000006C
S113002097C0000095C0000093C0000091C000007C
S11300308FC000008DC000008BC0000089C000008C
S113004087C0000085C0000083C0000081C000009C
S113005080C000007DC000007BC0000079C00000AB
S113006077C0000075C0000073C0000071C00000BC
S11300706FC000006DC000006BC0000069C00000CC
S113008067C0000065C0000063C0000061C00000DC
S11300905FC000005DC000005BC0000059C00000EC
S11300A057C0000055C0000053C0000051C00000FC
S11300B04FC000004DC000004BC0000049C000000C
S11300C047C0000045C0000043C00000B2C10000AA
S11300D03FC000003DC000003BC0000039C000002C
S11300E037C0000050017C012B012B01670138014E
S11300F02B012B012B012B012B012B012B012B019C
S11301002B012B013E012B0144012B012B014A0140
S1130110560111241FBECFEFD1E2DEBFCDBF00E0F8
S11301200CBF12E0A0E0B2E0E4E1F5E000E00BBFB8
S113013002C007900D92A433B107D9F722E0A4E3DB
S1130140B2E001C01D92A939B207E1F73ED0E0C187
S113015057CF1F920F920FB60F9211240BB60F9226
S11301608F939F93EF93FF9385B1805885B9E4E310
S1130170F2E080818F5F80838A3A19F484E6809369
S11301803402E4E3F2E082818F5F8283823819F4DF
S113019084E480933602E4E3F2E0838D8F5F838FFF
S11301A08E3F11F410924F028EEE95E890938500E5
S11301B080938400FF91EF919F918F910F900BBEDC
S11301C00F900FBE0F901F901895CF93DF93CDB76C
S11301D0DEB7C254D1090FB6F894DEBF0FBECDBF4F
S11301E084B1806884B985B1806885B94FE150E0F5
S11301F063E270E0CE0101965AD14AE150E069E031
S113020070E0CE01809653D149E050E060E070E0A8
S1130210CE01CA964CD191D081D07894E4E3F2E037
S11302208FE7808384E681838CE582838091020258
S1130230909103028383809102029091030294833C
S11302408091000290910102858380910002909137
S113025001029683178A9FD090E0FC01E154F109D2
S1130260E731F105C0F78827EE58FF4F8F4F17C1CC
S113027063E070E08DE292E0A6D0EDCF6EE170E035
S1130280CE010196A0D0E7CF69E170E0CE0180965F
S11302909AD0E1CF69E070E0CE01CA9694D0DBCF6A
S11302A06CE170E084E392E08ED0D5CF7DD08823DA
S11302B0E9F371D0182F78D08823E9F36CD0EAE3FE
S11302C0F0E0EC0FFD1FE10FF11D8083C4CF85E446
S11302D08093500269D08823E9F35DD08093510262
S11302E063D08823E9F357D08093520263E070E02F
S11302F080E592E083D0AFCF49E050E060E070E069
S1130300CE01CA96E4D063E070E080E592E076D056
S113031062E070E081E392E071D09DCF8EEE95E8CB
S113032090938500809384001092800084E08093F1
S1130330810081E080936F00089588E090E09093BD
S113034035018093340188E18093310186E0809304
S1130350320102C080913601809130018823D4F3A8
S113036088E090E09093D5008093D40088E980934E
S1130370D10086E08093D20002C08091D6008091A3
S1130380D0008823D4F308959091300195FFFCCFD9
S11303908093360108958091300188231CF4809164
S11303A03601089580E0089580913001882314F483
S11303B081E0089580E008959091D00095FFFCCFEE
S11303C08093D6000895EF92FF920F931F93CF93DB
S11303D0DF937C018B01C0E0D0E006C0F701EC0F95
S11303E0FD1F8081D1DF2196C017D107B8F3DF91BB
S11303F0CF911F910F91FF90EF900895EF92FF928C
S11304000F931F93CF93DF937C018B01C0E0D0E067
S113041006C0F701EC0FFD1F8081CEDF2196C017C7
S1130420D107B8F3DF91CF911F910F91FF90EF9017
S113043008951F920F920FB60F9211240BB60F92CC
S11304402F933F934F935F936F937F938F939F93D8
S1130450AF93BF93EF93FF938091D600813419F04B
S1130460863429F009C085B1805885B905C068E291
S113047070E084E092E0C2DFFF91EF91BF91AF9111
S11304809F918F917F916F915F914F913F912F91A8
S11304900F900BBE0F900FBE0F901F901895EE0F8C
S11304A0FF1F881F8BBF0790F691E02D1994DC0184
S11304B0CB01FC01F999FECF06C0F2BDE1BDF89A6B
S11304C0319600B40D9241505040B8F70895DC01C4
S11304D0A40FB51F4150504040F0CB01840F951F2D
S11304E02E9105D041505040D8F70895262FF99900
S11304F0FECF92BD81BDF89A019700B4021639F07F
S11305001FBA20BD0FB6F894FA9AF99A0FBE08954F
S1070510F894FFCF89
S1130514BC02800048616C6C6F2057656C742C209D
S1130524646173206973742065696E20496E74650F
S1130534727275707474657374210D0A00303031ED
S1070544000D0A0098
S9030000FC
