S00F000054535F546573742E737265636F
S113000088C00000A5C00000A3C00000A1C000007B
S11300109FC000009DC000009BC0000099C000006C
S113002097C0000095C0000093C0000091C000007C
S11300308FC000008DC000008BC0000089C000008C
S113004087C0000085C0000083C0000081C000009C
S113005080C000007DC000007BC0000079C00000AB
S113006077C0000075C0000073C0000071C00000BC
S11300706FC000006DC000006BC0000069C00000CC
S113008067C0000065C0000063C0000061C00000DC
S11300905FC000005DC000005BC0000059C00000EC
S11300A057C0000055C0000053C0000051C00000FC
S11300B04FC000004DC000004BC0000049C000000C
S11300C047C0000045C0000043C000007CC00000E1
S11300D03FC000003DC000003BC0000039C000002C
S11300E037C00000B201DC017F017F01C7018C0130
S11300F07F017F017F017F017F017F017F017F01FC
S11301007F01E40192017F0198017F017F019E013B
S1130110B80111241FBECFEFD1E2DEBFCDBF00E096
S11301200CBF12E0A0E0B2E0E8E6F5E000E00BBFAF
S113013002C007900D92AC33B107D9F723E0ACE3CA
S1130140B2E001C01D92A63AB207E1F786D00AC216
S113015057CF1F920F920FB60F9211240BB60F9226
S11301608F939F93EF93FF93EEE9F2E081818F5F8A
S113017081838A3A19F484E680939F02EEE9F2E0DF
S113018083818F5F8383823819F484E48093A1028E
S1130190EEE9F2E080818F5F808385B1805885B974
S11301A080912D0290912E0290938500809384007B
S11301B0FF91EF919F918F910F900BBE0F900FBE07
S11301C00F901F9018951F920F920FB60F92112443
S11301D00BB60F922F933F934F935F936F937F933D
S11301E08F939F93AF93BF93EF93FF938091D60028
S11301F08934D9F028F4813441F0863451F01AC09E
S11302008C34B1F0863559F015C085B1805885B964
S113021011C068E270E080E092E050D10BC069E068
S113022070E088E593E04AD105C080E325D102C09F
S113023080E322D1FF91EF91BF91AF919F918F9174
S11302407F916F915F914F913F912F910F900BBED2
S11302500F900FBE0F901F901895CFD067E070E0FD
S11302608FE292E02BD184B1806884B94EE150E0F2
S11302706EE870E08AE393E044D145E250E069E639
S113028070E081E893E03DD149E050E060E670E041
S113029088E593E036D140E350E060E370E08CE31E
S11302A092E02FD140E350E060E070E08AED92E00C
S11302B028D188E593E090939D0280939C028AD094
S11302C07894EEE9F2E08FE7818384E682838CE51B
S11302D0838380912B0290912C02848380912B0242
S11302E090912C0295838091290290912A02868311
S11302F08091290290912A029783108ED0E0ABD08E
S113030090E0FC01E154F109E731F105C0F78827D9
S1130310EE58FF4F8F4FEDC063E070E087E392E04B
S1130320B2D0EDCF6EE170E08AE393E0ACD0E7CFDA
S113033064E270E081E893E0A6D0E1CFD13029F403
S113034069E070E088E593E09ED0D230C1F660E3C6
S113035070E08CE392E097D060E370E08AED92E085
S113036092D0CDCF6CE170E08EE992E08CD0C7CF13
S11303707BD08823E9F36FD0C82F76D08823E9F3A4
S11303806AD0EC2FF0E0E85AFC4F8083B8CF85E4C4
S11303908093BA0269D08823E9F35DD08093BB02CD
S11303A063D08823E9F357D08093BC0263E070E004
S11303B08AEB92E083D0A3CF49E050E060E670E09E
S11303C088E593E0AED09BCF4FD08823E9F343D0A8
S11303D0D82F95CF80912D0290912E029093850075
S11303E08093840010928000E1E8F0E080818460D2
S11303F0808381E080936F00089588E090E090937B
S113040035018093340188E18093310186E0809343
S1130410320102C080913601809130018823D4F3E7
S113042088E090E09093D5008093D40088E980938D
S1130430D10086E08093D20002C08091D6008091E2
S1130440D0008823D4F308959091300195FFFCCF18
S11304508093360108958091300188231CF48091A3
S11304603601089580E0089580913001882314F4C2
S113047081E0089580E008959091D00095FFFCCF2D
S11304808093D6000895EF92FF920F931F93CF931A
S1130490DF937C018B01C0E0D0E006C0F701EC0FD4
S11304A0FD1F8081D1DF2196C017D107B8F3DF91FA
S11304B0CF911F910F91FF90EF900895EF92FF92CB
S11304C00F931F93CF93DF937C018B01C0E0D0E0A7
S11304D006C0F701EC0FFD1F8081CEDF2196C01707
S11304E0D107B8F3DF91CF911F910F91FF90EF9057
S11304F00895EE0FFF1F881F8BBF0790F691E02D24
S11305001994DC01CB01FC01F999FECF06C0F2BDC0
S1130510E1BDF89A319600B40D9241505040B8F7BD
S11305200895DC01A40FB51F4150504040F0CB01A9
S1130530840F951F2E9105D041505040D8F708954F
S1130540262FF999FECF92BD81BDF89A019700B488
S1130550021639F01FBA20BD0FB6F894FA9AF99A28
S10B05600FBE0895F894FFCFCB
S113056848616C6C6F2057656C742C20646173202F
S11305786973742065696E20496E7465727275704A
S11305887474657374210D0A00BC028000DC0B725C
S10F059865626F6F742100303031000088
S9030000FC
